{
  "contractName": "Rmsoft",
  "abi": [
    {
      "inputs": [],
      "stateMutability": "nonpayable",
      "type": "constructor"
    },
    {
      "anonymous": false,
      "inputs": [
        {
          "indexed": true,
          "internalType": "address",
          "name": "owner",
          "type": "address"
        },
        {
          "indexed": true,
          "internalType": "address",
          "name": "approved",
          "type": "address"
        },
        {
          "indexed": true,
          "internalType": "uint256",
          "name": "tokenId",
          "type": "uint256"
        }
      ],
      "name": "Approval",
      "type": "event"
    },
    {
      "anonymous": false,
      "inputs": [
        {
          "indexed": true,
          "internalType": "address",
          "name": "owner",
          "type": "address"
        },
        {
          "indexed": true,
          "internalType": "address",
          "name": "operator",
          "type": "address"
        },
        {
          "indexed": false,
          "internalType": "bool",
          "name": "approved",
          "type": "bool"
        }
      ],
      "name": "ApprovalForAll",
      "type": "event"
    },
    {
      "anonymous": false,
      "inputs": [
        {
          "indexed": true,
          "internalType": "address",
          "name": "from",
          "type": "address"
        },
        {
          "indexed": true,
          "internalType": "address",
          "name": "to",
          "type": "address"
        },
        {
          "indexed": true,
          "internalType": "uint256",
          "name": "tokenId",
          "type": "uint256"
        }
      ],
      "name": "Transfer",
      "type": "event"
    },
    {
      "inputs": [
        {
          "internalType": "address",
          "name": "to",
          "type": "address"
        },
        {
          "internalType": "uint256",
          "name": "tokenId",
          "type": "uint256"
        }
      ],
      "name": "approve",
      "outputs": [],
      "stateMutability": "nonpayable",
      "type": "function"
    },
    {
      "inputs": [
        {
          "internalType": "address",
          "name": "owner",
          "type": "address"
        }
      ],
      "name": "balanceOf",
      "outputs": [
        {
          "internalType": "uint256",
          "name": "",
          "type": "uint256"
        }
      ],
      "stateMutability": "view",
      "type": "function",
      "constant": true
    },
    {
      "inputs": [
        {
          "internalType": "uint256",
          "name": "tokenId",
          "type": "uint256"
        }
      ],
      "name": "getApproved",
      "outputs": [
        {
          "internalType": "address",
          "name": "",
          "type": "address"
        }
      ],
      "stateMutability": "view",
      "type": "function",
      "constant": true
    },
    {
      "inputs": [
        {
          "internalType": "address",
          "name": "owner",
          "type": "address"
        },
        {
          "internalType": "address",
          "name": "operator",
          "type": "address"
        }
      ],
      "name": "isApprovedForAll",
      "outputs": [
        {
          "internalType": "bool",
          "name": "",
          "type": "bool"
        }
      ],
      "stateMutability": "view",
      "type": "function",
      "constant": true
    },
    {
      "inputs": [],
      "name": "name",
      "outputs": [
        {
          "internalType": "string",
          "name": "",
          "type": "string"
        }
      ],
      "stateMutability": "view",
      "type": "function",
      "constant": true
    },
    {
      "inputs": [
        {
          "internalType": "uint256",
          "name": "tokenId",
          "type": "uint256"
        }
      ],
      "name": "ownerOf",
      "outputs": [
        {
          "internalType": "address",
          "name": "",
          "type": "address"
        }
      ],
      "stateMutability": "view",
      "type": "function",
      "constant": true
    },
    {
      "inputs": [
        {
          "internalType": "address",
          "name": "from",
          "type": "address"
        },
        {
          "internalType": "address",
          "name": "to",
          "type": "address"
        },
        {
          "internalType": "uint256",
          "name": "tokenId",
          "type": "uint256"
        }
      ],
      "name": "safeTransferFrom",
      "outputs": [],
      "stateMutability": "nonpayable",
      "type": "function"
    },
    {
      "inputs": [
        {
          "internalType": "address",
          "name": "from",
          "type": "address"
        },
        {
          "internalType": "address",
          "name": "to",
          "type": "address"
        },
        {
          "internalType": "uint256",
          "name": "tokenId",
          "type": "uint256"
        },
        {
          "internalType": "bytes",
          "name": "data",
          "type": "bytes"
        }
      ],
      "name": "safeTransferFrom",
      "outputs": [],
      "stateMutability": "nonpayable",
      "type": "function"
    },
    {
      "inputs": [
        {
          "internalType": "address",
          "name": "operator",
          "type": "address"
        },
        {
          "internalType": "bool",
          "name": "approved",
          "type": "bool"
        }
      ],
      "name": "setApprovalForAll",
      "outputs": [],
      "stateMutability": "nonpayable",
      "type": "function"
    },
    {
      "inputs": [
        {
          "internalType": "bytes4",
          "name": "interfaceId",
          "type": "bytes4"
        }
      ],
      "name": "supportsInterface",
      "outputs": [
        {
          "internalType": "bool",
          "name": "",
          "type": "bool"
        }
      ],
      "stateMutability": "view",
      "type": "function",
      "constant": true
    },
    {
      "inputs": [],
      "name": "symbol",
      "outputs": [
        {
          "internalType": "string",
          "name": "",
          "type": "string"
        }
      ],
      "stateMutability": "view",
      "type": "function",
      "constant": true
    },
    {
      "inputs": [
        {
          "internalType": "uint256",
          "name": "index",
          "type": "uint256"
        }
      ],
      "name": "tokenByIndex",
      "outputs": [
        {
          "internalType": "uint256",
          "name": "",
          "type": "uint256"
        }
      ],
      "stateMutability": "view",
      "type": "function",
      "constant": true
    },
    {
      "inputs": [
        {
          "internalType": "address",
          "name": "owner",
          "type": "address"
        },
        {
          "internalType": "uint256",
          "name": "index",
          "type": "uint256"
        }
      ],
      "name": "tokenOfOwnerByIndex",
      "outputs": [
        {
          "internalType": "uint256",
          "name": "",
          "type": "uint256"
        }
      ],
      "stateMutability": "view",
      "type": "function",
      "constant": true
    },
    {
      "inputs": [
        {
          "internalType": "uint256",
          "name": "",
          "type": "uint256"
        }
      ],
      "name": "tokenURIs",
      "outputs": [
        {
          "internalType": "string",
          "name": "",
          "type": "string"
        }
      ],
      "stateMutability": "view",
      "type": "function",
      "constant": true
    },
    {
      "inputs": [],
      "name": "totalSupply",
      "outputs": [
        {
          "internalType": "uint256",
          "name": "",
          "type": "uint256"
        }
      ],
      "stateMutability": "view",
      "type": "function",
      "constant": true
    },
    {
      "inputs": [
        {
          "internalType": "address",
          "name": "from",
          "type": "address"
        },
        {
          "internalType": "address",
          "name": "to",
          "type": "address"
        },
        {
          "internalType": "uint256",
          "name": "tokenId",
          "type": "uint256"
        }
      ],
      "name": "transferFrom",
      "outputs": [],
      "stateMutability": "nonpayable",
      "type": "function"
    },
    {
      "inputs": [
        {
          "internalType": "uint256",
          "name": "_tokenId",
          "type": "uint256"
        }
      ],
      "name": "tokenURI",
      "outputs": [
        {
          "internalType": "string",
          "name": "",
          "type": "string"
        }
      ],
      "stateMutability": "view",
      "type": "function",
      "constant": true
    },
    {
      "inputs": [
        {
          "internalType": "string",
          "name": "_tokenURI",
          "type": "string"
        }
      ],
      "name": "mint",
      "outputs": [
        {
          "internalType": "uint256",
          "name": "",
          "type": "uint256"
        }
      ],
      "stateMutability": "nonpayable",
      "type": "function"
    },
    {
      "inputs": [
        {
          "internalType": "address",
          "name": "_nftTokenOwner",
          "type": "address"
        }
      ],
      "name": "getMyNft",
      "outputs": [
        {
          "components": [
            {
              "internalType": "uint256",
              "name": "nftTokenId",
              "type": "uint256"
            },
            {
              "internalType": "string",
              "name": "nftTokenURI",
              "type": "string"
            }
          ],
          "internalType": "struct Rmsoft.NftTokenData[]",
          "name": "",
          "type": "tuple[]"
        }
      ],
      "stateMutability": "view",
      "type": "function",
      "constant": true
    }
  ],
  "bytecode": "0x60806040523480156200001157600080fd5b506040518060400160405280600681526020017f526d536f667400000000000000000000000000000000000000000000000000008152506040518060400160405280600281526020017f524d000000000000000000000000000000000000000000000000000000000000815250816000908051906020019062000096929190620000b8565b508060019080519060200190620000af929190620000b8565b505050620001cd565b828054620000c69062000197565b90600052602060002090601f016020900481019282620000ea576000855562000136565b82601f106200010557805160ff191683800117855562000136565b8280016001018555821562000136579182015b828111156200013557825182559160200191906001019062000118565b5b50905062000145919062000149565b5090565b5b80821115620001645760008160009055506001016200014a565b5090565b7f4e487b7100000000000000000000000000000000000000000000000000000000600052602260045260246000fd5b60006002820490506001821680620001b057607f821691505b60208210811415620001c757620001c662000168565b5b50919050565b6130d980620001dd6000396000f3fe608060405234801561001057600080fd5b50600436106101215760003560e01c80636352211e116100ad578063a22cb46511610071578063a22cb46514610354578063b88d4fde14610370578063c87b56dd1461038c578063d85d3d27146103bc578063e985e9c5146103ec57610121565b80636352211e146102765780636c8b703f146102a657806370a08231146102d657806378fdafc21461030657806395d89b411461033657610121565b806318160ddd116100f457806318160ddd146101c057806323b872dd146101de5780632f745c59146101fa57806342842e0e1461022a5780634f6ccce71461024657610121565b806301ffc9a71461012657806306fdde0314610156578063081812fc14610174578063095ea7b3146101a4575b600080fd5b610140600480360381019061013b9190611f36565b61041c565b60405161014d9190611f7e565b60405180910390f35b61015e610496565b60405161016b9190612032565b60405180910390f35b61018e6004803603810190610189919061208a565b610528565b60405161019b91906120f8565b60405180910390f35b6101be60048036038101906101b9919061213f565b61056e565b005b6101c8610686565b6040516101d5919061218e565b60405180910390f35b6101f860048036038101906101f391906121a9565b610693565b005b610214600480360381019061020f919061213f565b6106f3565b604051610221919061218e565b60405180910390f35b610244600480360381019061023f91906121a9565b610798565b005b610260600480360381019061025b919061208a565b6107b8565b60405161026d919061218e565b60405180910390f35b610290600480360381019061028b919061208a565b610829565b60405161029d91906120f8565b60405180910390f35b6102c060048036038101906102bb919061208a565b6108b0565b6040516102cd9190612032565b60405180910390f35b6102f060048036038101906102eb91906121fc565b610950565b6040516102fd919061218e565b60405180910390f35b610320600480360381019061031b91906121fc565b610a08565b60405161032d9190612381565b60405180910390f35b61033e610ae8565b60405161034b9190612032565b60405180910390f35b61036e600480360381019061036991906123cf565b610b7a565b005b61038a60048036038101906103859190612544565b610b90565b005b6103a660048036038101906103a1919061208a565b610bf2565b6040516103b39190612032565b60405180910390f35b6103d660048036038101906103d19190612668565b610c97565b6040516103e3919061218e565b60405180910390f35b610406600480360381019061040191906126b1565b610cec565b6040516104139190611f7e565b60405180910390f35b60007f780e9d63000000000000000000000000000000000000000000000000000000007bffffffffffffffffffffffffffffffffffffffffffffffffffffffff1916827bffffffffffffffffffffffffffffffffffffffffffffffffffffffff1916148061048f575061048e82610d80565b5b9050919050565b6060600080546104a590612720565b80601f01602080910402602001604051908101604052809291908181526020018280546104d190612720565b801561051e5780601f106104f35761010080835404028352916020019161051e565b820191906000526020600020905b81548152906001019060200180831161050157829003601f168201915b5050505050905090565b600061053382610e62565b6004600083815260200190815260200160002060009054906101000a900473ffffffffffffffffffffffffffffffffffffffff169050919050565b600061057982610829565b90508073ffffffffffffffffffffffffffffffffffffffff168373ffffffffffffffffffffffffffffffffffffffff1614156105ea576040517f08c379a00000000000000000000000000000000000000000000000000000000081526004016105e1906127c4565b60405180910390fd5b8073ffffffffffffffffffffffffffffffffffffffff16610609610ead565b73ffffffffffffffffffffffffffffffffffffffff161480610638575061063781610632610ead565b610cec565b5b610677576040517f08c379a000000000000000000000000000000000000000000000000000000000815260040161066e90612856565b60405180910390fd5b6106818383610eb5565b505050565b6000600880549050905090565b6106a461069e610ead565b82610f6e565b6106e3576040517f08c379a00000000000000000000000000000000000000000000000000000000081526004016106da906128e8565b60405180910390fd5b6106ee838383611003565b505050565b60006106fe83610950565b821061073f576040517f08c379a00000000000000000000000000000000000000000000000000000000081526004016107369061297a565b60405180910390fd5b600660008473ffffffffffffffffffffffffffffffffffffffff1673ffffffffffffffffffffffffffffffffffffffff168152602001908152602001600020600083815260200190815260200160002054905092915050565b6107b383838360405180602001604052806000815250610b90565b505050565b60006107c2610686565b8210610803576040517f08c379a00000000000000000000000000000000000000000000000000000000081526004016107fa90612a0c565b60405180910390fd5b6008828154811061081757610816612a2c565b5b90600052602060002001549050919050565b600080610835836112fd565b9050600073ffffffffffffffffffffffffffffffffffffffff168173ffffffffffffffffffffffffffffffffffffffff1614156108a7576040517f08c379a000000000000000000000000000000000000000000000000000000000815260040161089e90612aa7565b60405180910390fd5b80915050919050565b600b60205280600052604060002060009150905080546108cf90612720565b80601f01602080910402602001604051908101604052809291908181526020018280546108fb90612720565b80156109485780601f1061091d57610100808354040283529160200191610948565b820191906000526020600020905b81548152906001019060200180831161092b57829003601f168201915b505050505081565b60008073ffffffffffffffffffffffffffffffffffffffff168273ffffffffffffffffffffffffffffffffffffffff1614156109c1576040517f08c379a00000000000000000000000000000000000000000000000000000000081526004016109b890612b39565b60405180910390fd5b600360008373ffffffffffffffffffffffffffffffffffffffff1673ffffffffffffffffffffffffffffffffffffffff168152602001908152602001600020549050919050565b60606000610a1583610950565b905060008167ffffffffffffffff811115610a3357610a32612419565b5b604051908082528060200260200182016040528015610a6c57816020015b610a59611e0d565b815260200190600190039081610a515790505b50905060005b82811015610add576000610a8686836106f3565b90506000610a9382610bf2565b9050604051806040016040528083815260200182815250848481518110610abd57610abc612a2c565b5b602002602001018190525050508080610ad590612b88565b915050610a72565b508092505050919050565b606060018054610af790612720565b80601f0160208091040260200160405190810160405280929190818152602001828054610b2390612720565b8015610b705780601f10610b4557610100808354040283529160200191610b70565b820191906000526020600020905b815481529060010190602001808311610b5357829003601f168201915b5050505050905090565b610b8c610b85610ead565b838361133a565b5050565b610ba1610b9b610ead565b83610f6e565b610be0576040517f08c379a0000000000000000000000000000000000000000000000000000000008152600401610bd7906128e8565b60405180910390fd5b610bec848484846114a7565b50505050565b6060600b60008381526020019081526020016000208054610c1290612720565b80601f0160208091040260200160405190810160405280929190818152602001828054610c3e90612720565b8015610c8b5780601f10610c6057610100808354040283529160200191610c8b565b820191906000526020600020905b815481529060010190602001808311610c6e57829003601f168201915b50505050509050919050565b6000610ca3600a611503565b6000610caf600a611519565b905082600b60008381526020019081526020016000209080519060200190610cd8929190611e27565b50610ce33382611527565b80915050919050565b6000600560008473ffffffffffffffffffffffffffffffffffffffff1673ffffffffffffffffffffffffffffffffffffffff16815260200190815260200160002060008373ffffffffffffffffffffffffffffffffffffffff1673ffffffffffffffffffffffffffffffffffffffff16815260200190815260200160002060009054906101000a900460ff16905092915050565b60007f80ac58cd000000000000000000000000000000000000000000000000000000007bffffffffffffffffffffffffffffffffffffffffffffffffffffffff1916827bffffffffffffffffffffffffffffffffffffffffffffffffffffffff19161480610e4b57507f5b5e139f000000000000000000000000000000000000000000000000000000007bffffffffffffffffffffffffffffffffffffffffffffffffffffffff1916827bffffffffffffffffffffffffffffffffffffffffffffffffffffffff1916145b80610e5b5750610e5a82611745565b5b9050919050565b610e6b816117af565b610eaa576040517f08c379a0000000000000000000000000000000000000000000000000000000008152600401610ea190612aa7565b60405180910390fd5b50565b600033905090565b816004600083815260200190815260200160002060006101000a81548173ffffffffffffffffffffffffffffffffffffffff021916908373ffffffffffffffffffffffffffffffffffffffff160217905550808273ffffffffffffffffffffffffffffffffffffffff16610f2883610829565b73ffffffffffffffffffffffffffffffffffffffff167f8c5be1e5ebec7d5bd14f71427d1e84f3dd0314c0f7b2291e5b200ac8c7c3b92560405160405180910390a45050565b600080610f7a83610829565b90508073ffffffffffffffffffffffffffffffffffffffff168473ffffffffffffffffffffffffffffffffffffffff161480610fbc5750610fbb8185610cec565b5b80610ffa57508373ffffffffffffffffffffffffffffffffffffffff16610fe284610528565b73ffffffffffffffffffffffffffffffffffffffff16145b91505092915050565b8273ffffffffffffffffffffffffffffffffffffffff1661102382610829565b73ffffffffffffffffffffffffffffffffffffffff1614611079576040517f08c379a000000000000000000000000000000000000000000000000000000000815260040161107090612c43565b60405180910390fd5b600073ffffffffffffffffffffffffffffffffffffffff168273ffffffffffffffffffffffffffffffffffffffff1614156110e9576040517f08c379a00000000000000000000000000000000000000000000000000000000081526004016110e090612cd5565b60405180910390fd5b6110f683838360016117f0565b8273ffffffffffffffffffffffffffffffffffffffff1661111682610829565b73ffffffffffffffffffffffffffffffffffffffff161461116c576040517f08c379a000000000000000000000000000000000000000000000000000000000815260040161116390612c43565b60405180910390fd5b6004600082815260200190815260200160002060006101000a81549073ffffffffffffffffffffffffffffffffffffffff02191690556001600360008573ffffffffffffffffffffffffffffffffffffffff1673ffffffffffffffffffffffffffffffffffffffff168152602001908152602001600020600082825403925050819055506001600360008473ffffffffffffffffffffffffffffffffffffffff1673ffffffffffffffffffffffffffffffffffffffff16815260200190815260200160002060008282540192505081905550816002600083815260200190815260200160002060006101000a81548173ffffffffffffffffffffffffffffffffffffffff021916908373ffffffffffffffffffffffffffffffffffffffff160217905550808273ffffffffffffffffffffffffffffffffffffffff168473ffffffffffffffffffffffffffffffffffffffff167fddf252ad1be2c89b69c2b068fc378daa952ba7f163c4a11628f55a4df523b3ef60405160405180910390a46112f88383836001611950565b505050565b60006002600083815260200190815260200160002060009054906101000a900473ffffffffffffffffffffffffffffffffffffffff169050919050565b8173ffffffffffffffffffffffffffffffffffffffff168373ffffffffffffffffffffffffffffffffffffffff1614156113a9576040517f08c379a00000000000000000000000000000000000000000000000000000000081526004016113a090612d41565b60405180910390fd5b80600560008573ffffffffffffffffffffffffffffffffffffffff1673ffffffffffffffffffffffffffffffffffffffff16815260200190815260200160002060008473ffffffffffffffffffffffffffffffffffffffff1673ffffffffffffffffffffffffffffffffffffffff16815260200190815260200160002060006101000a81548160ff0219169083151502179055508173ffffffffffffffffffffffffffffffffffffffff168373ffffffffffffffffffffffffffffffffffffffff167f17307eab39ab6107e8899845ad3d59bd9653f200f220920489ca2b5937696c318360405161149a9190611f7e565b60405180910390a3505050565b6114b2848484611003565b6114be84848484611956565b6114fd576040517f08c379a00000000000000000000000000000000000000000000000000000000081526004016114f490612dd3565b60405180910390fd5b50505050565b6001816000016000828254019250508190555050565b600081600001549050919050565b600073ffffffffffffffffffffffffffffffffffffffff168273ffffffffffffffffffffffffffffffffffffffff161415611597576040517f08c379a000000000000000000000000000000000000000000000000000000000815260040161158e90612e3f565b60405180910390fd5b6115a0816117af565b156115e0576040517f08c379a00000000000000000000000000000000000000000000000000000000081526004016115d790612eab565b60405180910390fd5b6115ee6000838360016117f0565b6115f7816117af565b15611637576040517f08c379a000000000000000000000000000000000000000000000000000000000815260040161162e90612eab565b60405180910390fd5b6001600360008473ffffffffffffffffffffffffffffffffffffffff1673ffffffffffffffffffffffffffffffffffffffff16815260200190815260200160002060008282540192505081905550816002600083815260200190815260200160002060006101000a81548173ffffffffffffffffffffffffffffffffffffffff021916908373ffffffffffffffffffffffffffffffffffffffff160217905550808273ffffffffffffffffffffffffffffffffffffffff16600073ffffffffffffffffffffffffffffffffffffffff167fddf252ad1be2c89b69c2b068fc378daa952ba7f163c4a11628f55a4df523b3ef60405160405180910390a4611741600083836001611950565b5050565b60007f01ffc9a7000000000000000000000000000000000000000000000000000000007bffffffffffffffffffffffffffffffffffffffffffffffffffffffff1916827bffffffffffffffffffffffffffffffffffffffffffffffffffffffff1916149050919050565b60008073ffffffffffffffffffffffffffffffffffffffff166117d1836112fd565b73ffffffffffffffffffffffffffffffffffffffff1614159050919050565b6117fc84848484611ade565b6001811115611840576040517f08c379a000000000000000000000000000000000000000000000000000000000815260040161183790612f3d565b60405180910390fd5b6000829050600073ffffffffffffffffffffffffffffffffffffffff168573ffffffffffffffffffffffffffffffffffffffff1614156118885761188381611ae4565b6118c7565b8373ffffffffffffffffffffffffffffffffffffffff168573ffffffffffffffffffffffffffffffffffffffff16146118c6576118c58582611b2d565b5b5b600073ffffffffffffffffffffffffffffffffffffffff168473ffffffffffffffffffffffffffffffffffffffff16141561190a5761190581611c9a565b611949565b8473ffffffffffffffffffffffffffffffffffffffff168473ffffffffffffffffffffffffffffffffffffffff1614611948576119478482611d6b565b5b5b5050505050565b50505050565b60006119778473ffffffffffffffffffffffffffffffffffffffff16611dea565b15611ad1578373ffffffffffffffffffffffffffffffffffffffff1663150b7a026119a0610ead565b8786866040518563ffffffff1660e01b81526004016119c29493929190612fb2565b6020604051808303816000875af19250505080156119fe57506040513d601f19601f820116820180604052508101906119fb9190613013565b60015b611a81573d8060008114611a2e576040519150601f19603f3d011682016040523d82523d6000602084013e611a33565b606091505b50600081511415611a79576040517f08c379a0000000000000000000000000000000000000000000000000000000008152600401611a7090612dd3565b60405180910390fd5b805181602001fd5b63150b7a0260e01b7bffffffffffffffffffffffffffffffffffffffffffffffffffffffff1916817bffffffffffffffffffffffffffffffffffffffffffffffffffffffff191614915050611ad6565b600190505b949350505050565b50505050565b6008805490506009600083815260200190815260200160002081905550600881908060018154018082558091505060019003906000526020600020016000909190919091505550565b60006001611b3a84610950565b611b449190613040565b9050600060076000848152602001908152602001600020549050818114611c29576000600660008673ffffffffffffffffffffffffffffffffffffffff1673ffffffffffffffffffffffffffffffffffffffff168152602001908152602001600020600084815260200190815260200160002054905080600660008773ffffffffffffffffffffffffffffffffffffffff1673ffffffffffffffffffffffffffffffffffffffff168152602001908152602001600020600084815260200190815260200160002081905550816007600083815260200190815260200160002081905550505b6007600084815260200190815260200160002060009055600660008573ffffffffffffffffffffffffffffffffffffffff1673ffffffffffffffffffffffffffffffffffffffff16815260200190815260200160002060008381526020019081526020016000206000905550505050565b60006001600880549050611cae9190613040565b9050600060096000848152602001908152602001600020549050600060088381548110611cde57611cdd612a2c565b5b906000526020600020015490508060088381548110611d0057611cff612a2c565b5b906000526020600020018190555081600960008381526020019081526020016000208190555060096000858152602001908152602001600020600090556008805480611d4f57611d4e613074565b5b6001900381819060005260206000200160009055905550505050565b6000611d7683610950565b905081600660008573ffffffffffffffffffffffffffffffffffffffff1673ffffffffffffffffffffffffffffffffffffffff168152602001908152602001600020600083815260200190815260200160002081905550806007600084815260200190815260200160002081905550505050565b6000808273ffffffffffffffffffffffffffffffffffffffff163b119050919050565b604051806040016040528060008152602001606081525090565b828054611e3390612720565b90600052602060002090601f016020900481019282611e555760008555611e9c565b82601f10611e6e57805160ff1916838001178555611e9c565b82800160010185558215611e9c579182015b82811115611e9b578251825591602001919060010190611e80565b5b509050611ea99190611ead565b5090565b5b80821115611ec6576000816000905550600101611eae565b5090565b6000604051905090565b600080fd5b600080fd5b60007fffffffff0000000000000000000000000000000000000000000000000000000082169050919050565b611f1381611ede565b8114611f1e57600080fd5b50565b600081359050611f3081611f0a565b92915050565b600060208284031215611f4c57611f4b611ed4565b5b6000611f5a84828501611f21565b91505092915050565b60008115159050919050565b611f7881611f63565b82525050565b6000602082019050611f936000830184611f6f565b92915050565b600081519050919050565b600082825260208201905092915050565b60005b83811015611fd3578082015181840152602081019050611fb8565b83811115611fe2576000848401525b50505050565b6000601f19601f8301169050919050565b600061200482611f99565b61200e8185611fa4565b935061201e818560208601611fb5565b61202781611fe8565b840191505092915050565b6000602082019050818103600083015261204c8184611ff9565b905092915050565b6000819050919050565b61206781612054565b811461207257600080fd5b50565b6000813590506120848161205e565b92915050565b6000602082840312156120a05761209f611ed4565b5b60006120ae84828501612075565b91505092915050565b600073ffffffffffffffffffffffffffffffffffffffff82169050919050565b60006120e2826120b7565b9050919050565b6120f2816120d7565b82525050565b600060208201905061210d60008301846120e9565b92915050565b61211c816120d7565b811461212757600080fd5b50565b60008135905061213981612113565b92915050565b6000806040838503121561215657612155611ed4565b5b60006121648582860161212a565b925050602061217585828601612075565b9150509250929050565b61218881612054565b82525050565b60006020820190506121a3600083018461217f565b92915050565b6000806000606084860312156121c2576121c1611ed4565b5b60006121d08682870161212a565b93505060206121e18682870161212a565b92505060406121f286828701612075565b9150509250925092565b60006020828403121561221257612211611ed4565b5b60006122208482850161212a565b91505092915050565b600081519050919050565b600082825260208201905092915050565b6000819050602082019050919050565b61225e81612054565b82525050565b600082825260208201905092915050565b600061228082611f99565b61228a8185612264565b935061229a818560208601611fb5565b6122a381611fe8565b840191505092915050565b60006040830160008301516122c66000860182612255565b50602083015184820360208601526122de8282612275565b9150508091505092915050565b60006122f783836122ae565b905092915050565b6000602082019050919050565b600061231782612229565b6123218185612234565b93508360208202850161233385612245565b8060005b8581101561236f578484038952815161235085826122eb565b945061235b836122ff565b925060208a01995050600181019050612337565b50829750879550505050505092915050565b6000602082019050818103600083015261239b818461230c565b905092915050565b6123ac81611f63565b81146123b757600080fd5b50565b6000813590506123c9816123a3565b92915050565b600080604083850312156123e6576123e5611ed4565b5b60006123f48582860161212a565b9250506020612405858286016123ba565b9150509250929050565b600080fd5b600080fd5b7f4e487b7100000000000000000000000000000000000000000000000000000000600052604160045260246000fd5b61245182611fe8565b810181811067ffffffffffffffff821117156124705761246f612419565b5b80604052505050565b6000612483611eca565b905061248f8282612448565b919050565b600067ffffffffffffffff8211156124af576124ae612419565b5b6124b882611fe8565b9050602081019050919050565b82818337600083830152505050565b60006124e76124e284612494565b612479565b90508281526020810184848401111561250357612502612414565b5b61250e8482856124c5565b509392505050565b600082601f83011261252b5761252a61240f565b5b813561253b8482602086016124d4565b91505092915050565b6000806000806080858703121561255e5761255d611ed4565b5b600061256c8782880161212a565b945050602061257d8782880161212a565b935050604061258e87828801612075565b925050606085013567ffffffffffffffff8111156125af576125ae611ed9565b5b6125bb87828801612516565b91505092959194509250565b600067ffffffffffffffff8211156125e2576125e1612419565b5b6125eb82611fe8565b9050602081019050919050565b600061260b612606846125c7565b612479565b90508281526020810184848401111561262757612626612414565b5b6126328482856124c5565b509392505050565b600082601f83011261264f5761264e61240f565b5b813561265f8482602086016125f8565b91505092915050565b60006020828403121561267e5761267d611ed4565b5b600082013567ffffffffffffffff81111561269c5761269b611ed9565b5b6126a88482850161263a565b91505092915050565b600080604083850312156126c8576126c7611ed4565b5b60006126d68582860161212a565b92505060206126e78582860161212a565b9150509250929050565b7f4e487b7100000000000000000000000000000000000000000000000000000000600052602260045260246000fd5b6000600282049050600182168061273857607f821691505b6020821081141561274c5761274b6126f1565b5b50919050565b7f4552433732313a20617070726f76616c20746f2063757272656e74206f776e6560008201527f7200000000000000000000000000000000000000000000000000000000000000602082015250565b60006127ae602183611fa4565b91506127b982612752565b604082019050919050565b600060208201905081810360008301526127dd816127a1565b9050919050565b7f4552433732313a20617070726f76652063616c6c6572206973206e6f7420746f60008201527f6b656e206f776e6572206f7220617070726f76656420666f7220616c6c000000602082015250565b6000612840603d83611fa4565b915061284b826127e4565b604082019050919050565b6000602082019050818103600083015261286f81612833565b9050919050565b7f4552433732313a2063616c6c6572206973206e6f7420746f6b656e206f776e6560008201527f72206f7220617070726f76656400000000000000000000000000000000000000602082015250565b60006128d2602d83611fa4565b91506128dd82612876565b604082019050919050565b60006020820190508181036000830152612901816128c5565b9050919050565b7f455243373231456e756d657261626c653a206f776e657220696e646578206f7560008201527f74206f6620626f756e6473000000000000000000000000000000000000000000602082015250565b6000612964602b83611fa4565b915061296f82612908565b604082019050919050565b6000602082019050818103600083015261299381612957565b9050919050565b7f455243373231456e756d657261626c653a20676c6f62616c20696e646578206f60008201527f7574206f6620626f756e64730000000000000000000000000000000000000000602082015250565b60006129f6602c83611fa4565b9150612a018261299a565b604082019050919050565b60006020820190508181036000830152612a25816129e9565b9050919050565b7f4e487b7100000000000000000000000000000000000000000000000000000000600052603260045260246000fd5b7f4552433732313a20696e76616c696420746f6b656e2049440000000000000000600082015250565b6000612a91601883611fa4565b9150612a9c82612a5b565b602082019050919050565b60006020820190508181036000830152612ac081612a84565b9050919050565b7f4552433732313a2061646472657373207a65726f206973206e6f74206120766160008201527f6c6964206f776e65720000000000000000000000000000000000000000000000602082015250565b6000612b23602983611fa4565b9150612b2e82612ac7565b604082019050919050565b60006020820190508181036000830152612b5281612b16565b9050919050565b7f4e487b7100000000000000000000000000000000000000000000000000000000600052601160045260246000fd5b6000612b9382612054565b91507fffffffffffffffffffffffffffffffffffffffffffffffffffffffffffffffff821415612bc657612bc5612b59565b5b600182019050919050565b7f4552433732313a207472616e736665722066726f6d20696e636f72726563742060008201527f6f776e6572000000000000000000000000000000000000000000000000000000602082015250565b6000612c2d602583611fa4565b9150612c3882612bd1565b604082019050919050565b60006020820190508181036000830152612c5c81612c20565b9050919050565b7f4552433732313a207472616e7366657220746f20746865207a65726f2061646460008201527f7265737300000000000000000000000000000000000000000000000000000000602082015250565b6000612cbf602483611fa4565b9150612cca82612c63565b604082019050919050565b60006020820190508181036000830152612cee81612cb2565b9050919050565b7f4552433732313a20617070726f766520746f2063616c6c657200000000000000600082015250565b6000612d2b601983611fa4565b9150612d3682612cf5565b602082019050919050565b60006020820190508181036000830152612d5a81612d1e565b9050919050565b7f4552433732313a207472616e7366657220746f206e6f6e20455243373231526560008201527f63656976657220696d706c656d656e7465720000000000000000000000000000602082015250565b6000612dbd603283611fa4565b9150612dc882612d61565b604082019050919050565b60006020820190508181036000830152612dec81612db0565b9050919050565b7f4552433732313a206d696e7420746f20746865207a65726f2061646472657373600082015250565b6000612e29602083611fa4565b9150612e3482612df3565b602082019050919050565b60006020820190508181036000830152612e5881612e1c565b9050919050565b7f4552433732313a20746f6b656e20616c7265616479206d696e74656400000000600082015250565b6000612e95601c83611fa4565b9150612ea082612e5f565b602082019050919050565b60006020820190508181036000830152612ec481612e88565b9050919050565b7f455243373231456e756d657261626c653a20636f6e736563757469766520747260008201527f616e7366657273206e6f7420737570706f727465640000000000000000000000602082015250565b6000612f27603583611fa4565b9150612f3282612ecb565b604082019050919050565b60006020820190508181036000830152612f5681612f1a565b9050919050565b600081519050919050565b600082825260208201905092915050565b6000612f8482612f5d565b612f8e8185612f68565b9350612f9e818560208601611fb5565b612fa781611fe8565b840191505092915050565b6000608082019050612fc760008301876120e9565b612fd460208301866120e9565b612fe1604083018561217f565b8181036060830152612ff38184612f79565b905095945050505050565b60008151905061300d81611f0a565b92915050565b60006020828403121561302957613028611ed4565b5b600061303784828501612ffe565b91505092915050565b600061304b82612054565b915061305683612054565b92508282101561306957613068612b59565b5b828203905092915050565b7f4e487b7100000000000000000000000000000000000000000000000000000000600052603160045260246000fdfea264697066735822122055676cbfe4aadc85a0510f71aa82014fa849ff1d983d5fe7a8e1cdac0ecc9db764736f6c634300080a0033",
  "immutableReferences": {},
  "source": "// SPDX-License-Identifier: MIT\npragma solidity 0.8.10;\n\nimport \"../node_modules/@openzeppelin/contracts/token/ERC721/extensions/ERC721Enumerable.sol\";\nimport \"../node_modules/@openzeppelin/contracts/utils/Counters.sol\";\n\ncontract Rmsoft is ERC721Enumerable{\n    \n    using Counters for Counters.Counter;\n    Counters.Counter private _tokenIds;\n\n    constructor() ERC721(\"RmSoft\",\"RM\"){}\n\n    //tokenId => ipfs\n    mapping(uint => string) public tokenURIs;\n\n    function tokenURI(uint _tokenId) override public view returns (string memory){\n        return tokenURIs[_tokenId];\n    }\n\n\n    function mint(string memory _tokenURI) public returns (uint256){\n        //tokenId 1\n        _tokenIds.increment();\n        \n        //id\n        uint256 tokenId = _tokenIds.current();\n        //id _tokenURI(=ipfs)    ->  ?  ?()\n        tokenURIs[tokenId] = _tokenURI;\n\n        //\n        _mint(msg.sender, tokenId);\n        \n        return tokenId;\n    }\n\n    struct NftTokenData {\n        uint256 nftTokenId;\n        string nftTokenURI;\n    }\n\n\n    // NFT \n    function getMyNft(address _nftTokenOwner) view public returns(NftTokenData[] memory){\n         uint256 totalBalance = balanceOf(_nftTokenOwner);\n        //  NftTokenData struct  \n         NftTokenData[] memory nftTokenData = new NftTokenData[](totalBalance);\n        \n         for(uint256 i = 0; i < totalBalance; i++){\n             uint256 nftTokenId = tokenOfOwnerByIndex(_nftTokenOwner, i); //   ID \n             string memory nftTokenURI = tokenURI(nftTokenId);\n             nftTokenData[i] = NftTokenData(nftTokenId, nftTokenURI);\n         }\n         return nftTokenData;\n    }\n\n\n\n}",
  "sourcePath": "/home/nft/yangcheon_sample/yangcheon_nft/truffle/contracts/Rmsoft.sol",
  "compiler": {
    "name": "solc",
    "version": "0.8.10+commit.fc410830.Emscripten.clang"
  },
  "schemaVersion": "3.4.11",
  "updatedAt": "2023-10-19T08:18:37.261Z",
  "networkType": "ethereum",
  "devdoc": {
    "kind": "dev",
    "methods": {
      "approve(address,uint256)": {
        "details": "See {IERC721-approve}."
      },
      "balanceOf(address)": {
        "details": "See {IERC721-balanceOf}."
      },
      "getApproved(uint256)": {
        "details": "See {IERC721-getApproved}."
      },
      "isApprovedForAll(address,address)": {
        "details": "See {IERC721-isApprovedForAll}."
      },
      "name()": {
        "details": "See {IERC721Metadata-name}."
      },
      "ownerOf(uint256)": {
        "details": "See {IERC721-ownerOf}."
      },
      "safeTransferFrom(address,address,uint256)": {
        "details": "See {IERC721-safeTransferFrom}."
      },
      "safeTransferFrom(address,address,uint256,bytes)": {
        "details": "See {IERC721-safeTransferFrom}."
      },
      "setApprovalForAll(address,bool)": {
        "details": "See {IERC721-setApprovalForAll}."
      },
      "supportsInterface(bytes4)": {
        "details": "See {IERC165-supportsInterface}."
      },
      "symbol()": {
        "details": "See {IERC721Metadata-symbol}."
      },
      "tokenByIndex(uint256)": {
        "details": "See {IERC721Enumerable-tokenByIndex}."
      },
      "tokenOfOwnerByIndex(address,uint256)": {
        "details": "See {IERC721Enumerable-tokenOfOwnerByIndex}."
      },
      "totalSupply()": {
        "details": "See {IERC721Enumerable-totalSupply}."
      },
      "transferFrom(address,address,uint256)": {
        "details": "See {IERC721-transferFrom}."
      }
    },
    "version": 1
  },
  "userdoc": {
    "kind": "user",
    "methods": {},
    "version": 1
  }
}